:0300000002098171
:0C098100787FE4F6D8FD7581180209C8E3
:100A7700444F4F52204C4F434B0020202053595393
:100A870054454D00456E7465722050617373776FDE
:100A970072640050617373776F7264004D617463A1
:0A0AA7006865640057726F6E670007
:070B5D000508303233343982
:060B1500D2B17F017E0059
:100B1B00E4FDFCC3ED9FEE6480F8EC648098501408
:100B2B00E4FBFA0BBB00010AEBF44A70F60DBD00B7
:040B3B00010C80DF4A
:010B3F002293
:10080000E4F512F5137F01120B497F38120B497F73
:100810000E120B497F80120B497BFF7A0A797712FF
:100820000AB77FC0120B497BFF7A0A7981120AB797
:100830007F0A7E00120B1B7F01120B497BFF7A0A95
:10084000798B120AB77FC0120B49C290D291D29213
:10085000D293209417740D2513F876317F2A120B4A
:1008600053120B400513E5137002051220951774FF
:100870000D2513F876327F2A120B53120B40051305
:10088000E51370020512209617740D2513F87633C0
:100890007F2A120B53120B400513E5137002051249
:1008A000D290C291D292D293209417740D2513F84E
:1008B00076347F2A120B53120B400513E513700296
:1008C0000512209517740D2513F876357F2A120B23
:1008D00053120B400513E51370020512209617748E
:1008E0000D2513F876367F2A120B53120B40051391
:1008F000E51370020512D290D291C292D293209445
:1009000017740D2513F876377F2A120B53120B40FC
:100910000513E51370020512209517740D2513F8C1
:1009200076387F2A120B53120B400513E513700221
:100930000512209617740D2513F876397F2A120BAD
:1009400053120B400513E51370020512D290D29199
:10095000D292C293209517740D2513F876307F2A12
:10096000120B53120B400513E51370020512E51329
:10097000640545127006120A0D120B40D29302084C
:010980004A2C
:100A0D00E50D6508703DE50E65097037E50F650A62
:100A1D007031E510650B702BE511650C7025D2B2A8
:100A2D00C2B37F01120B497F80120B49120AB17FAD
:100A3D00C0120B497BFF7A0A79A3120AB77FE87EB1
:100A4D00038023C2B2C2B37F01120B497F80120B08
:100A5D00497BFF7A0A79AB120AB77FC0120B491294
:0A0A6D000AB17F647E00120B1B2209
:090B40007FC87E00120B1B7F062A
:0A0B49008FA0C2B0120B15C2B1223A
:0A0B53008FA0D2B0120B15C2B12220
:060AB1007BFF7A0A799A2E
:060AB7008B148A1589165C
:100ABD00E4F517F518AB14AA15A916851882851734
:100ACD0083120AE8FF600D120B530518E51870E547
:0B0ADD00051780E17F647E00020B1B08
:10098D00020800E493A3F8E493A34003F68001F278
:10099D0008DFF48029E493A3F85407240CC8C3336B
:1009AD00C4540F4420C8834004F456800146F6DF3A
:1009BD00E4800B0102040810204080900B5DE47E62
:1009CD00019360BCA3FF543F30E509541FFEE4932F
:1009DD00A360010ECF54C025E060A840B8E493A3F6
:1009ED00FAE493A3F8E493A3C8C582C8CAC583CA21
:1009FD00F0A3C8C582C8CAC583CADFE9DEE780BED9
:010B64000090
:100AE800BB010CE58229F582E5833AF583E02250C3
:100AF80006E92582F8E622BBFE06E92582F8E2220D
:0D0B0800E58229F582E5833AF583E4932226
:00000001FF
