:030000000209D81A
:0C09D800787FE4F6D8FD75811A020A1F32
:100AA300444F4F52204C4F434B0020202053595367
:100AB30054454D00456E7465722050617373776FB2
:100AC30072640050617373776F7264004D61746375
:0A0AD3006865640057726F6E6700DB
:0F0B8000020F000002080000050A30323334393A
:060B4100D2B17F017E002D
:100B4700E4FDFCC3ED9FEE6480F8EC6480985015DB
:100B5700E4FBFA0BBB00010ABA04F8BBFBF50DBDB9
:050B670000010C80DE1E
:010B6C002266
:100A64007F01120B767F38120B767F0E120B767F86
:100A740080120B767BFF7A0A79A3120AE37FC012F5
:100A84000B767BFF7A0A79AD120AE3120B43120B41
:0F0A9400767BFF7A0A79B7120AE37FC0020B76EE
:10080000120A64C290D291D292D29320941774119A
:100810002510F876317F2A120B90120B6D0510E52A
:10082000107002050F20951774112510F876327F8D
:100830002A120B90120B6D0510E5107002050F20A7
:10084000961774112510F876337F2A120B90120B2D
:100850006D0510E5107002050FD290C291D292D2B0
:100860009320941774112510F876347F2A120B9078
:10087000120B6D0510E5107002050F20951774110D
:100880002510F876357F2A120B90120B6D0510E5B6
:10089000107002050F20961774112510F876367F18
:1008A0002A120B90120B6D0510E5107002050FD285
:1008B00090D291C292D29320941774112510F87699
:1008C000377F2A120B90120B6D0510E51070020590
:1008D0000F20951774112510F876387F2A120B9087
:1008E000120B6D0510E5107002050F20961774119C
:1008F0002510F876397F2A120B90120B6D0510E542
:10090000107002050FD290D291D292C29320951707
:1009100074112510F876307F2A120B90120B6D059A
:1009200010E5107002050FE5106405450F70061202
:0A093000093A120B6DD2930208037E
:030B9A000208004E
:10093A00E511650A7044E512650B703EE513650C16
:10094A007038E514650D7032E515650E702CD2B25B
:10095A00C2B37F01120B767F80120B76120ADD7FFB
:10096A00C0120B767BFF7A0A79CF120AE37FF47EF4
:10097A0001120B47C2B2C2B3804BC2B2C2B37F01EB
:10098A00120B767F80120B767BFF7A0A79D7120ACE
:10099A00E37FC0120B76120ADDE4F508F509D2B43A
:1009AA00C2B57FC87E00120B47C2B4C2B57F0A1215
:1009BA000B470509E50970020508C39403E50864B5
:0E09CA0080948040D9E4F50FF5101208002249
:090B6D007F647E00120B477F0635
:0A0B76008FA0C2B0120B41C2B122E1
:0A0B90008FA0D2B0120B41C2B122B7
:060ADD007BFF7A0A79C6D6
:060AE3008B168A1789182A
:100AE900E4F519F51AAB16AA17A918851A828519FA
:100AF90083120B14FF600D120B90051AE51A70E5AD
:0B0B0900051980E17F647E00020B47AD
:1009E400020B9AE493A3F8E493A34003F68001F284
:1009F40008DFF48029E493A3F85407240CC8C33314
:100A0400C4540F4420C8834004F456800146F6DFE2
:100A1400E4800B0102040810204080900B80E47EE7
:100A2400019360BCA3FF543F30E509541FFEE493D7
:100A3400A360010ECF54C025E060A840B8E493A39E
:100A4400FAE493A3F8E493A3C8C582C8CAC583CAC9
:100A5400F0A3C8C582C8CAC583CADFE9DEE780BE81
:010B8F000065
:100B1400BB010CE58229F582E5833AF583E0225096
:100B240006E92582F8E622BBFE06E92582F8E222E0
:0D0B3400E58229F582E5833AF583E49322FA
:00000001FF
